:020000040000FA
:10000000B0150020A1010000A9010000AB01000013
:10001000AD010000AF010000B1010000550000007B
:10002000000000000000000000000000B30100001C
:10003000B501000000000000B7010000B901000098
:100040003B1000009B0B0000D50B0000050F0000CB
:100050000B0F0000110F0000170F000051090000E6
:100060004D1000005F0C0000BB010000BB01000050
:10007000BB010000BB010000BB010000BB01000090
:10008000BB010000BB010000BB010000BB01000080
:10009000BB010000BB010000BB010000BB01000070
:1000A000BB010000BB010000BB010000BB01000060
:1000B000BB010000BB010000BB010000BB01000050
:1000C00000F002F800F051F80AA090E8000C824419
:1000D0008344AAF10107DA4501D100F046F8AFF2F6
:1000E000090EBAE80F0013F0010F18BFFB1A43F016
:1000F00001031847C03B0000E03B0000103A24BF5A
:1001000078C878C1FAD8520724BF30C830C144BF7C
:1001100004680C60704700000023002400250026BE
:10012000103A28BF78C1FBD8520728BF30C148BF5A
:100130000B607047692903F0CB81642903F0C88103
:10014000782903F00182732903F02F830020704780
:100150001FB503F09DFA04000020002103F0A4FB6A
:10016000401C60601FBD10B510BD03F067FB114659
:10017000FFF7EEFF00F06AF803F085FB03B4FFF72A
:10018000F2FF03BC03F088FB044903480860704792
:10019000024901480860704740787D010000002056
:1001A0000948804709480047FEE7FEE7FEE7FEE70B
:1001B000FEE7FEE7FEE7FEE7FEE7FEE70448054947
:1001C000054A064B7047000091010000C100000085
:1001D000B0050020B0150020B0110020B0110020A3
:1001E000024652E8003F42E80010704710B5C0B028
:1001F00000248021684600F06EFF70B17F2804DB88
:10020000B3A002F019F840B010BD0DF800406946E7
:10021000B5A002F0DFF88DF80040802120A800F0A2
:1002200079FF0028E5D07F2803DBA9A002F004F8BD
:10023000E9E720A90C5420A803F0D6F901460022D2
:1002400020A800F028FF8DF88040D2E72DE9F04388
:10025000ADF5397D4FF0C0473D46A44CA4A003C87E
:1002600071917090A4A003C86F916E902022A44950
:1002700066A803F0D8F900F00FFC10B1A1A001F0BE
:10028000DBFF00F071FE00F04BFC10B1A8A001F004
:10029000D3FF00F08CFE10B1B0A001F0CDFFBA4E3C
:1002A0004FF0FF303060012000F058FB022000F0DA
:1002B00055FB082000F052FB00F053FC002000F03A
:1002C0004DFB092000F04AFB00F0A3FE072000F0E0
:1002D00050FB56F8800C4FF0000810F0800F01D052
:1002E000012600E00026304600F026FD10B1A7A050
:1002F00001F0A2FF00F038FD206877907798C0F3F6
:1003000003547798C0F30B12779800F00F09A2F509
:10031000406021381AD002281DD0AAA172A803F08B
:1003200065F84B4672AAAAA179A8009403F05EF87A
:10033000B0A001F081FF79A801F07EFFB7A001F025
:100340007BFF6EB1BDA001F077FF0CE0C4A172A8E5
:1003500003F026F9E5E7C5A172A803F021F9E0E76B
:10036000C5A001F069FFCCA001F066FFD8A001F0A4
:1003700063FFA0A001F060FF0024D8F81C005528FE
:1003800000D001244FF08051CA69552A00D0A41C26
:100390000C22CA613EB10C2800D0241D0B20C8F8E5
:1003A0001C00083402E0552800D0241D032C03D182
:1003B000CBA001F041FF0024022C03D1D7A001F013
:1003C0003BFF0024042C07D1D8F81C000C2803D1D3
:1003D000DDA001F031FF00245CB1E2A001F02CFFB0
:1003E0002246E7A179A803F001F879A801F024FFDB
:1003F00002E0E5A001F020FF002066AA52F82010DC
:1004000002C5401C0828F9D300213D462C46002097
:1004100008CC52F82070BB4200D0491C401C082870
:10042000F6D319B1DCA001F007FF02E0E3A001F070
:1004300003FF00F09EFC0022082170A800F0B7FC2A
:10044000002208216EA800F0ECFC0021002070AB17
:100450006EAA1F5C145CBC4200D0491C401C0828DA
:10046000F7D319B1DBA001F0E7FE02E0E3A001F051
:10047000E3FEE94978A800F005FB012802D1E7A0D6
:1004800001F0DAFEE4494FF01020491C00F0FAFABE
:10049000012802D1EAA001F0CFFEDF491C20891C0F
:1004A00000F0F0FA0446012C03D116B1EFA001F0E0
:1004B000C3FE344302D1F8A001F0BEFED64928465F
:1004C000C91C00F0DFFA304300D1F7E1F9E1000088
:1004D0004578636565646564206172726179206C3A
:1004E000696D69740D0A00002573000000ED00E0DD
:1004F0000123456789ABCDEFFFFFFFFFFFFFFFFF44
:10050000D43800004572726F72202D2058696C69D2
:100510006E78204750494F206661696C656420748D
:100520006F20696E697469616C6973650A00000007
:100530004572726F72202D20457370333220475000
:10054000494F206661696C656420746F20496E694B
:100550007469616C697A650A000000004572726F07
:1005600072202D20457370333220556172742066DD
:1005700061696C656420746F20496E697469616C8F
:10058000697A650A0000000080E200E04572726F3F
:1005900072202D2058696C696E7820535049206371
:1005A0006F6E74726F6C6C657273206661696C65D6
:1005B0006420746F20696E697469616C6973650A7F
:1005C00000000000556E6B6E6F776E20257800007E
:1005D00041726D202573205265766973696F6E20B4
:1005E00025692056617269616E742025690D0A0AB9
:1005F000000000002A2A2A2A2A2A2A2A2A2A2A2A03
:100600002A2A2A2A2A2A2A2A2A2A2A2A2A2A2A2A4A
:100610002A2A2A2A2A2A2A2A0D0A000021212121EF
:1006200020544553542031392E30372E323120306A
:10063000363A343020212121210D0A000A56324356
:100640002D4441504C696E6B20626F617264206E64
:100650006F742064657465637465640D0A0000003E
:10066000436F727465782D4D31000000436F7274D2
:1006700065782D4D330000000A5632432D44415019
:100680004C696E6B20626F6172642064657465638F
:100690007465640D0A0000005573652044495020BC
:1006A000737769746368657320616E642070757315
:1006B0006820627574746F6E7320746F0D0A636FB7
:1006C0006E74726F6C204C4544530D0A000000009C
:1006D0002056657273696F6E20312E310D0A00004D
:1006E000557070657220616E64206C6F7765722042
:1006F000726567696F6E73207772697474656E20B6
:1007000073696E6365204252414D20696E69746958
:10071000616C697365640D0A0000000055707065B6
:100720007220616C6961732077726974656E2073E1
:10073000696E6365204252414D20696E697469613A
:100740006C697365640D0A004954434D20616C73F4
:100750006F20616C696173656420686967680D0A60
:1007600000000000556E65787065637465642061F3
:100770006C696173206265686176696F75720000EB
:100780002025640D0A000000416C696173696E6781
:10079000204F4B0D0A0000004552524F52202D2091
:1007A0004272616D20726561646261636B20636F88
:1007B000727275707465642E0D0A00004272616D6C
:1007C00020726561646261636B20636F727265633E
:1007D000740D0A004552524F52202D20426173651C
:1007E0002053504920726561646261636B20636FBE
:1007F000727275707465642E0D0A00004261736533
:100800002053504920726561646261636B20636F9D
:1008100072726563740D0A003012341253545245DB
:1008200058204454434D206661696C656420756EA0
:1008300065787065637465646C790D0A000000006A
:100840005354524558204954434D206869676820E5
:10085000616C696173206661696C656420756E65A1
:10086000787065637465646C790D0A005354524561
:1008700058204954434D206C6F7720616C69617337
:10088000206661696C656420756E65787065637457
:1008900065646C790D0A0000535452455820515339
:1008A000504920737563636573732028756E65788E
:1008B000706563746564290D0A00000032A001F0C0
:1008C000BBFC3AA001F0B8FC41A14DA802F08EFD9E
:1008D00042A134A802F08AFD44A11BA802F086FDC3
:1008E0004CA102A802F082FD002002F055FD014655
:1008F000524A534801F069FE514802F019FD10B107
:1009000050A001F099FC57A001F064FD34A802F05A
:100910006BFE0146002234A800F0BDFB51A001F09F
:1009200059FD1BA802F060FE014600221BA800F042
:10093000B2FB00F078FBFFF759FC0DF5397D002084
:10094000BDE8F083002800D001204C4908707047B2
:100950004B4980200860072000F00BB800F01F0210
:10096000012191404009800000F1E020C0F8001111
:10097000704700F01F02012191404009800000F102
:10098000E020C0F88011704753545245582042521D
:10099000414D20737563636573732028756E6578A8
:1009A000706563746564290D0A00000041746F6D01
:1009B0006963207472616E73616374696F6E207411
:1009C00065737420636F6D706C657465640D0A00E7
:1009D00041542B5253540D0A0000000041542B4344
:1009E000574D4F44453D330D0A00000041542B4301
:1009F000574A41503D224D65617A6F6E2D466173B5
:100A000074222C226D33615A306E2D3230323122F5
:100A10000D0A000041542B43574A41503D224D4599
:100A2000415A4F4E2D57494649222C226D33615A67
:100A3000306E2D32303135220D0A00000000A24404
:100A4000040100204572726F72206F6E2058496C4D
:100A5000696E78204144432073656C6674657374D5
:100A60000D0A000021212121436F6D6D616E64200C
:100A700073656E74212121210D0A000004000020FD
:100A800080E200E01CB50446206801902046FFF794
:100A9000A7FB216800911CBD10B50021A34801F0FF
:100AA000A2FB08B1012010BDA0480121103001F0C7
:100AB0009AFB08B1012010BD9C480221203001F0B2
:100AC00092FB08B1012010BD6FF00F020121974881
:100AD00001F0AEF94FF0FF3422460221934801F0B5
:100AE000A7F9924822030121103001F0A1F98F48A3
:100AF00022460221103001F09BF98C48002201218E
:100B0000203001F095F9894800220121103001F0D0
:100B100017FA00220121854801F012FA002010BDC9
:100B200010B5032001F04EFB01468048804A30306A
:100B300001F066F908B1012010BD7C4800220121B6
:100B4000303001F075F979480F220221303001F080
:100B50006FF9764801221146303001F0F1F900209A
:100B600010BD10B571480221103001F061FA022168
:100B70006E4801F05DFA6D480321303001F058FAFB
:100B80006A48103001F00AFA684801F007FA67482D
:100B9000BDE81040303001F001BA08B502216348C9
:100BA00001F0A1F9009001216048009A01F0C8F914
:100BB0000099604801290AD00021017003215B4897
:100BC00001F084FABDE80840012000F0A3B801213B
:100BD0000170F3E77CB555480221103001F083F92C
:100BE00098B352480221103001F07DF901904F482E
:100BF0000121103001F077F900900198C00702D070
:100C00000724012513E00198800702D53824082520
:100C10000DE00198400703D54FF4E074402506E04D
:100C20000198000703D54FF460644FF400750098F5
:100C30002040284420400099A143014300913B48B3
:100C400001211030009A01F07BF93848032110305F
:100C500001F03CFABDE87C40022000F05BB810B522
:100C600032480321303001F031FABDE8104008204D
:100C700000F050B810B5044600290DD02B480121D2
:100C8000303001F030F920EA040228480121BDE8A3
:100C90001040303001F054B924480121303001F0C7
:100CA00022F940EA040221480121BDE81040303019
:100CB00001F046B9012804D01C480221303001F06F
:100CC00012B91A480121303001F00DB90246174817
:100CD0000121203001F034B908B50221134801F098
:100CE00002F90090009ABDE80840521C01210F480B
:100CF00001F026B908B502210C4801F0F4F8009083
:100D0000009ABDE808400121084801F019B90948D6
:100D10000078704700F01F020121914040098000D7
:100D200000F1E020C0F88012704700001C01002094
:100D3000000004400500002010B500217D4800F0AF
:100D4000AFFD08B1012010BD7A4800F02BFA7948B8
:100D500000F0C9FA774800218069C1610121754816
:100D600000F034FC002010BD724800218069C16190
:100D7000704710B56F488069016E41F0040101664B
:100D80006C4C06205C342070012300222146694807
:100D900000F006FB05202070FF20607004F58072D3
:100DA0002146BDE810400223624800F0F9BA2DE95F
:100DB000F04104460D4617465E488069016E41F0D9
:100DC00004010166002D01D0FC2D02D90120BDE8EF
:100DD000F081584E06205C363070012300223146E7
:100DE000544800F0DDFA02203070380C7070380A78
:100DF000B070F770002204E0B11814F8010B08710C
:100E0000521CAA42F8D34B492B1D00225C314948A1
:100E100000F0C6FA002144F62062491C9142FCD33E
:100E2000D5E770B505460C4642488069016E41F031
:100E300004010166002C01D0FC2C01D9012070BDF9
:100E40003C4803215C300170110C4170110A817023
:100E5000C2700022002102E083181971521CA242C4
:100E6000FAD3354A231DA2F58071324800F098FA72
:100E700003460022304804E08118097905F8011B77
:100E8000521CA242F8D3184670BD2DE9F04192B031
:100E9000054688460026274F97F82D30DC08424645
:100EA00026A102A8009402F0A1FA02A801F0C4F958
:100EB000B869016E41F00401016600230AE0B869D7
:100EC00000F164010968090703D429782544816683
:100ED000264423444345F2D3B86900210167B86929
:100EE000016E21F4807141F002010166B869203081
:100EF00001684907FCD5016841F0040101603046F2
:100F000012B064E7032000F009B8042000F006B82E
:100F1000052000F003B80620AFF3008000F01F02A8
:100F2000012191404009800000F1E020C0F88012CA
:100F3000704700005C010020B80200206C656E2044
:100F400025692C205769642025692C20696E6372FD
:100F50002025690D0A00000082480222026081609B
:100F600070478048C160704710B500217E4800F08E
:100F7000D4FE08B1012010BD7B4AAFF21901104622
:100F800000F00DFE784AAFF22F01104600F0E6FDAA
:100F900075494FF480729831734800F064FD002069
:100FA00010BD70480122026081607047704710B523
:100FB000012000F0A1FE01466B486C4A4C3000F065
:100FC0009BFC08B1012010BD674A4C32AFF22301EF
:100FD000104600F0E4FD644A4C32AFF2390110468D
:100FE00000F0BCFD00210120FFF744FE5E494FF4F4
:100FF00080729831A1F14C0000F035FD002010BD49
:10100000584988684A68801A002801D08A684A606E
:10101000704710B5544800F042FE5348BDE81040F8
:101020004C3000F03CBE10B54F4800F01CFE4E485E
:10103000BDE810404C3000F016BE10B54A4800F034
:10104000F4FDBDE81040002000F080B810B546481F
:101050004C3000F0EAFDBDE81040092000F076B801
:101060002DE9F04105460F46002600240EE03E48DB
:101070004C3000F058FD0028F9D13B4801222946A8
:101080004C3000F080FC06446D1C641CBC42EEDB5E
:101090003046BDE8F08170B505460E46144632482C
:1010A0004C3000F040FD0028F9D164B131462846AB
:1010B000FFF7D6FF04462C484C3000F034FD0028E2
:1010C000F9D1204670BD2848324629464C3000F000
:1010D0005AFC0446EFE770B504460D462148016806
:1010E000002902D022A001F075F91F484C3000F011
:1010F0001AFD0028F9D11C482A4621464C3000F040
:10110000B2FC044618484C3000F00DFD0028F9D11F
:10111000204670BD70B504460D461248016800298E
:1011200002D013A001F056F90F4800F0FCFC002893
:10113000FAD12A4621460C4800F095FC04460A489C
:1011400000F0F1FC0028FAD1204670BD00F01F022B
:10115000012191404009800000F1E020C0F8801298
:101160007047000008000020B80300200000604025
:1011700054657374203A2025640D0A00026B81695E
:101180000A6782696032116889B241F48071436AEA
:10119000002B01D041F06001116000214164016425
:1011A000816470472DE9F04104460127FE4D002C73
:1011B0000DD000262E60E069B0F1113F0ED04FF443
:1011C000D071FA4801F042F82F60BDE8F08140F29A
:1011D0009F11F64801F03AF82F60F6E72046FFF736
:1011E000CDFF2662206B6063A0690A210164ECE7F1
:1011F00010B54FF47E71ED4801F028F8EA4901205E
:10120000086010BDF8B50124E74D002832D0002356
:101210002B60056AB5F1223F33D003628364E44D4D
:10122000C5648363C3630364436482618D684562FC
:10123000CD6885620D7C80F82C504E7C1EB380F802
:101240002D608E7C80F82E604E6946650E7E80F89B
:1012500058604FF01136C661AC40641E04634463AD
:10126000036043608360C36003614361497E012979
:101270000DD034E09521CD4800F0E8FF2C6000202F
:10128000F8BD0520F8BD082680F82D60D9E7116E5D
:1012900041F0660111669F228DF800208DF8013023
:1012A0008DF8023081698A6681698B6681698B66F7
:1012B00081690A6E22F480720A6681690A6E42F4BC
:1012C00080720A66816901F164021368DB0702D14A
:1012D00001F16C031B681268D20700D1C96EFFF7D9
:1012E00061FF0020F8BD70B50125AF4C00280DD07E
:1012F00000212160C169B1F1113F0FD04FF491710C
:10130000AA4800F0A3FF2560002070BD40F2211123
:10131000A64800F09BFF2560002070BD016A4FF0D9
:101320002233994201D1052070BD81698A6A42F257
:101330002B0422438A62036281690A6E42F06202D0
:101340000A668069E107C161002070BD70B50125A2
:10135000954C00280DD000232360C169B1F1113FE5
:101360000FD04FF4B871914800F070FF2560002055
:1013700070BD40F26F118D4800F068FF25600020BD
:1013800070BD816C09B1152070BD81690022CA61F0
:1013900081690A6E22F002020A660362002070BDB3
:1013A0002DE9F05F0024804E4FF00108002811D095
:1013B00000253560B9B1FBB1C769B7F1113F24D041
:1013C00040F21521794800F041FFC6F80080002066
:1013D000BDE8F09F40F21221744800F037FFC6F8D4
:1013E00000800020F4E740F21321704800F02EFF47
:1013F000C6F800800020EBE74FF405716B4800F061
:1014000025FFC6F800800020E2E7066AB6F1223F19
:1014100001D00620DCE7866C0EB11520D8E7D0F8A5
:1014200018C05CF81C6F4FF00047BE4201D1012686
:1014300000E000264FF00009CCF80090D0F818C06A
:10144000E2465CF8609F5FEA497B0DD55FEAC979A7
:101450000AD1D0E90CB9D94506D1012E01D1CAF87B
:101460001C7040F28340B3E7C0F848808163C263D8
:101470000364436490F82D10DCF8002042F480727D
:10148000CCF800208269526E1AE0082904D0102995
:1014900005D0202906D007E0826B147804E0826B27
:1014A000148801E0826B146882699466826B02EB97
:1014B000D1028263426CA2EBD10242648269526E15
:1014C000120702D4426C002ADFD1D0F834C08269FE
:1014D000C2F870C08269D2F860C02CF4807CC2F877
:1014E00060C0012E5ED181698A6A42F004028A627C
:1014F0008069C76168E08269203216687607FCD58A
:10150000166846F0040616608269526E23E082690E
:10151000D46E082904D0102908D020290DD012E05B
:10152000C26B82B1561CC66314700CE0C26B52B120
:101530001480C26B921CC26305E0C26B1AB11460C6
:10154000C26B121DC263026902EBD1020261A3EBFE
:10155000D1038269526ED207D9D0426C12B382692C
:10156000526E1AE0082904D0102905D0202906D08F
:1015700007E0826B147804E0826B148801E0826BD0
:10158000146882699466826B02EBD1028263426CBA
:10159000A2EBD10242648269526E120702D4426CFD
:1015A000002ADFD1002B05E0F00000201C390000EC
:1015B000F11100009FD181690A6E42F480720A66BF
:1015C000026B81690A678564002001E770B50D46EA
:1015D0000126A74C00280DD000212160C169B1F17E
:1015E000113F0FD040F25E31A24800F02FFE26607E
:1015F000002070BD40F25D319E4800F027FE26605D
:10160000002070BD816C09B1152070BD002390F8D9
:101610002C20521E002A07DB25FA02F1CC0700D04D
:101620005B1C521E002AF7DA012B02DD40F28440D7
:1016300070BDE9434163002070BD70B501258C4C3D
:1016400000280DD000212160C169B1F1113F0FD0F8
:1016500040F29D31874800F0F9FD2560002070BD03
:101660004FF46771834800F0F1FD2560002070BDE4
:10167000406BC04370BD70B501257D4C00280DD076
:10168000002323608AB1C369B3F1113F14D04FF432
:101690007771784800F0DAFD256070BD40F2DA31EC
:1016A000744800F0D3FD256070BD40F2DB31714815
:1016B00000F0CCFD256070BDC264016570BD70B5E1
:1016C000044600216A4D00281ED000232B6060696B
:1016D000401C6061A069056A026A2A430262E80749
:1016E0001AD0D4E91001451A2068401C2060204619
:1016F000FFF744FDA069406ED4E913302A46BDE8E7
:10170000704040F27F41184740F23641594800F09E
:101710009DFD0120286070BD94F82D0005F00402A5
:1017200005F0400632435BD0A269526E21E0A16908
:10173000C96E082804D0102808D020280DD012E047
:10174000E26B82B1561CE66311700CE0E26B52B1A1
:101750001180E26B921CE26305E0E26B1AB111604A
:10176000E26B121DE263226902EBD0022261A269E0
:10177000526ED207DBD0626C1AB3A269526E1AE0C5
:10178000082804D0102805D0202806D007E0A16B37
:10179000097804E0A16B098801E0A16B0968A269DE
:1017A0009166A26B02EBD002A263626CA2EBD00244
:1017B0006264A269526E120712D4626C002ADFD1F1
:1017C0000EE0216BA0690167A069816A21F0040124
:1017D0008162A364D4E913304FF49061226C98477E
:1017E000280605D5D4E9133000224FF491619847BB
:1017F000E80505D5D4E91330002240F28941984725
:10180000A8070AD5D4E91001421AE068401CE0603C
:10181000D4E9133040F287419847A8060AD5D4E9A5
:101820001001421AA068401CA060D4E9133040F2B5
:101830008241984728070AD5D4E91001421A606806
:10184000401C6060D4E9133040F281419847A804FD
:101850007FF561AFD4E91001421A6068401C6060F6
:10186000D4E91330BDE8704040F28A4118470000C7
:10187000F00000201C39000010B500240021164A99
:10188000C1EBC10332F82330834204D1C1EBC10064
:1018900002EB800402E0491C0429F1D3204610BD6C
:1018A00070B504460D4D002C0CD000202860084671
:1018B000FFF7E2FF014669B120464A68BDE8704083
:1018C000FFF7A0BC7021064800F0C0FC0120286092
:1018D000002070BD022070BD18000020F000002024
:1018E0006839000010B540F2A511994800F0AEFC2F
:1018F00098490120086010BD10B5964C002813D0FF
:10190000002121604162C1628162016381634163A0
:101910004FF011330362C2618F4BC3634364D160E4
:1019200000F04BFA002010BD7521894800F08EFCB4
:1019300001202060002010BD30B50021C3691C4685
:101940009A689A68D2B20025E560154607E0426AB7
:10195000C369545C5C60491CC3699A68D2B21207BF
:1019600002D4C26A8A42F2D8426A0A444262C26A15
:10197000521AC26282680A44826005F01002C0698D
:10198000C260084630BD70B50124724D00280DD0EC
:1019900000262E6089B1036AB3F1113F14D0C6212D
:1019A0006B4800F053FC2C60002070BDC4216848D7
:1019B00000F04CFC2C60002070BDC521644800F094
:1019C00045FC2C60002070BD002A0EDBC36903F1CA
:1019D00008042468DE608262C262416204F0100280
:1019E000C169CA60BDE87040A6E7C721584800F049
:1019F0002DFC2C60002070BD70B50021C26902F181
:101A000008031B68DCB20023D3601AE0C36903F14A
:101A100008021268D2B2D50716D01B68066B0D46B5
:101A2000491C7355930602D503695B1C03611306B9
:101A300002D543695B1C4361520602D58269521C80
:101A40008261826B8A42E1D8026B0A440263826B34
:101A5000521A8263C2680A44C26004F01002C0696C
:101A6000C260084670BD70B501243A4D00280ED002
:101A700000262E6099B1036AB3F1113F17D040F2EE
:101A80001911334800F0E2FB2C60002070BD40F2D9
:101A900017112F4800F0DAFB2C60002070BD4FF4C6
:101AA0008C712B4800F0D2FB2C60002070BD002A06
:101AB0000EDBC36903F108042468DE6042638263BD
:101AC000016304F01002C169CA60BDE8704093E789
:101AD0004FF48D711E4800F0B9FB2C60002070BDE2
:101AE00070B501251B4C00280CD000212160016A33
:101AF000B1F1113F0DD040F25511154800F0A6FB91
:101B0000256070BD4FF4AA71114800F09FFB25605D
:101B100070BDC06900F10801096801F0100141F0D1
:101B20000301C16070BD10B50A4C002807D0002128
:101B30002160C069806840F38000401C10BD40F205
:101B40007F11034800F082FB01202060002010BDBF
:101B5000B8390000F0000020E518000070B501253C
:101B60005D4C00280CD00023236079B1036AB3F1E7
:101B7000113F11D05021594800F068FB256070BD1D
:101B80004E21564800F062FB256070BD4F2153483E
:101B900000F05CFB256070BDC163026470BD70B570
:101BA00001254D4C00280CD00023236079B1036A35
:101BB000B3F1113F11D07121484800F047FB256077
:101BC00070BD6F21454800F041FB256070BD70215C
:101BD000424800F03BFB256070BD4164826470BDEB
:101BE00010B50446E06A002806D02046FFF7A4FEA0
:101BF0002068401C206010BDA16A0020A062D4E9CA
:101C000011209047F4E710B50446A06B002802D0DD
:101C10002046FFF7F1FEA06B18B9D4E90F20616BE5
:101C200090476068401C606010BD70B504462A4D46
:101C3000002C11D000202860E0698568A80702D038
:101C40002046FFF7E0FF68070CD5A06A002809D0FE
:101C50002046BDE87040C3E78C21204800F0F6FA2A
:101C60000120286070BD70B501251B4C00280CD0E8
:101C700000212160026AB2F1113F0DD04FF486714C
:101C8000164800F0E3FA256070BD40F20B111348CE
:101C900000F0DCFA256070BDC069C16070BD70B530
:101CA00001250D4C00280CD000212160016AB1F102
:101CB000113F0DD04FF49571084800F0C7FA256028
:101CC00070BD40F22911054800F0C0FA256070BDD2
:101CD000C0691021C16070BDF00000200C3A000006
:101CE00082681207FCD4416070478168C907FCD044
:101CF0000068C0B27047000010B500240021154AEA
:101D000002EB01131B88834202D102EB011402E0B3
:101D1000491C0229F4D3204610BD70B504460E4D6F
:101D2000002C0CD0002028600846FFF7E5FF014694
:101D300069B120464A68BDE87040FFF7DDBD6B2100
:101D4000064800F083FA01202860002070BD0220C0
:101D500070BD000088000020F0000020643A000000
:101D600070B50125244C00280CD00022226079B1E6
:101D7000026AB2F1113F11D04821204800F066FA02
:101D8000256070BD46211D4800F060FA256070BDD9
:101D900047211A4800F05AFA256070BD02680A60AF
:101DA00042684A6082688A60C268CA6002690A61E1
:101DB00082698A614069486170BD70B501250E4C29
:101DC00000280BD000212160026AB2F1113F0BD034
:101DD0006A210A4800F03AFA256070BD6921074877
:101DE00000F034FA256070BD016041608160C1601F
:101DF00001618161416170BDF0000020C03A0000C6
:101E000010B5644C00280BD00023236002608A6860
:101E10008260C968C1604FF011314160002010BD7F
:101E200063215D4800F012FA01202060002010BDFF
:101E300070B50125574C00280BD000232360436860
:101E4000B3F1113F0BD08921534800F0FFF9256011
:101E500070BD8821504800F0F9F9256070BD012956
:101E60000AD0022902D1C368012B05D08A214A4831
:101E700000F0ECF9256070BD491E0068042303EBF7
:101E8000C1010844026070BD70B50125414C0028B5
:101E90000CD0002222604268B2F1113F0DD0A72180
:101EA0003D4800F0D3F92560002070BDA6213A48D6
:101EB00000F0CCF92560002070BD01290BD002296B
:101EC00002D1C268012A06D0A821334800F0BEF929
:101ED0002560002070BD491E0068042202EBC1018C
:101EE0000844006870BD70B501252A4C00280CD04C
:101EF000002222604268B2F1113F0DD0C121264874
:101F000000F0A4F92560002070BDC021224800F037
:101F10009DF92560002070BD01290BD0022902D156
:101F2000C268012A06D0C2211B4800F08FF9256043
:101F3000002070BD0068491E00EBC100006870BD44
:101F400070B50125134C00280BD000232360436893
:101F5000B3F1113F0BD0DD210F4800F077F9256078
:101F600070BDDC210C4800F071F9256070BD0129BD
:101F70000AD0022902D1C368012B05D0DE21064810
:101F800000F064F9256070BD0068491E00EBC100D7
:101F9000026070BDF00000201C3B000070B5012500
:101FA000864C00280BD0002121604168B1F1113F1F
:101FB0000BD04621824800F049F9256070BD4521CB
:101FC0007F4800F043F9256070BD8168012905D084
:101FD00047217B4800F03AF9256070BD00684FF05A
:101FE0000041C0F81C1170BD70B50125734C00286C
:101FF0000BD0002121604268B2F1113F0BD061216A
:102000006F4800F023F9256070BD60216C4800F036
:102010001DF9256070BD8268012A05D062216848DB
:1020200000F014F9256070BD0068C0F81C1170BD87
:1020300070B50125614C00280BD000222260426857
:10204000B2F1113F0BD07F215D4800F0FFF8256011
:1020500070BD7E215A4800F0F9F8256070BD826895
:10206000012A05D08021564800F0F0F8256070BDA7
:10207000006800F5947002680A43026070BD70B594
:1020800001254E4C00280BD0002222604268B2F19C
:10209000113F0BD0A3214A4800F0D8F8256070BD4D
:1020A000A221474800F0D2F8256070BD8268012A5D
:1020B00005D0A421424800F0C9F8256070BD006831
:1020C00000F5947002688A43026070BD70B5012506
:1020D0003A4C00280BD0002222604268B2F1113F36
:1020E0000BD0C621364800F0B1F8256070BDC5217F
:1020F000334800F0ABF8256070BD8268012A05D036
:10210000C7212F4800F0A2F8256070BD006800F5D7
:10211000907002680A40026070BD70B50125274CBE
:1021200000280CD0002121604168B1F1113F0DD091
:10213000E921234800F08AF82560002070BDE821DD
:102140001F4800F083F82560002070BD81680129D8
:1021500006D0EA211A4800F079F82560002070BD09
:102160000068D0F8280170BD70B50125134C002817
:102170000DD0002121604168B1F1113F0FD04FF423
:1021800083710F4800F062F82560002070BD40F2B6
:1021900005110B4800F05AF82560002070BD8168D9
:1021A000012907D040F20711054800F04FF82560DB
:1021B000002070BD0068D0F8200170BDF000002044
:1021C000683B000010B500240021154A02EB011302
:1021D0001B88834202D102EB011402E0491C04294E
:1021E000F4DB204610BD70B5044608460D4E002CA9
:1021F0000BD000253560FFF7E5FF014669B12046A9
:102200004A68BDE87040FFF7FBBD7521064800F045
:102210001DF801203060002070BD6560022070BD97
:10222000A8000020F0000020B83B00000146014853
:10223000FFF756BD0000104010B5044602E0FFF75E
:10224000F5FF641C20780028F9D110BD10B5064CAC
:102250006268002A00D0904720680028FDD110BD98
:102260000149486070477047E800002070B50C468F
:102270002169002905D0002803D0D4E90050854207
:1022800004DB70BD207BFFF7D1FF6D1C6068A842A6
:10229000F8DC70BD70B504460D46002C03D0204616
:1022A00001F0A2F92860686920B100202946FFF7F3
:1022B000DDFF07E00120F9E7401EA8602078FFF766
:1022C000B5FF641C207810B1A8680028F4D1294615
:1022D0006869BDE87040C9E72DE9F0418EB0054658
:1022E0000E4617461422A6A101A801F09CF9002170
:1022F00030200DF1180808F80100491C2029FADBEC
:10230000B86930B90A2E04D1002D02DA01206D42DD
:1023100000E00020002401A9B5FBF6F206FB1252F2
:102320008A5C08F80420641CB5FBF6F5002DF3D197
:1023300018B12D2008F80400641C002008F80400DF
:10234000641E06A801F050F93860786920B10020B9
:102350003946FFF78BFF06E00120F9E718F8040083
:10236000FFF764FF641E08EB04004045F6D23946CF
:102370007869FFF77BFF0EB0BDE8F0812DE9F041F1
:102380000646002100253468002C07D001F018F81B
:1023900000682178405C202803D000216FF02F07CF
:1023A00011E00121FAE734B114F8010B05EB8501C6
:1023B00007EB4101451801F003F800682178405C03
:1023C000202805D000210029EDD134602846D3E72C
:1023D0000121F8E70FB4F0B589B00E9800900FA86E
:1023E00001900027012564E0252805D0FFF71EFF96
:1023F0000098401C00905CE000240897079706971F
:1024000020208DF8140047F6FF7004900397029780
:1024100000F0D6FF0646009808B1401C0090009AD4
:102420000AB1117800E011783068405C20280FD0A4
:10243000084600F0CDFF642853D025DC58285BD037
:102440001DDC25283FD02D2842D02E282AD142E05D
:1024500024B16846FFF792FF04900AE0302902D1C8
:1024600030208DF814001AB16846FFF787FF0390FB
:10247000069500980028CED0401E0090CBE75C283F
:1024800059D063280ED14DE0732841D006DC69286D
:1024900027D06C2822D0702804D12DE075281FD0B9
:1024A000782829D001200128B5D1009808B1401C16
:1024B00000900098002802D00078002894D109B03C
:1024C000F0BC5DF814FB2520FFF7B0FE0120EAE721
:1024D00007950020E7E701240020E4E70020E2E779
:1024E00008950198019902AA0068091D01910A2125
:1024F000FFF7F2FE0120D6E708950198019902AA9C
:102500000068091D01911021FFF7E6FE0120CAE7CE
:10251000019801990068091D019102A9FFF7BAFE0F
:102520000120C0E7019810F8041B0190C8B2FFF722
:102530007DFE0120B7E70098007861280CD068285C
:102540000ED06E2814D072280ED0FFF76FFE0098C0
:10255000401C00900020A6E70720FFF767FEF6E783
:102560000820FFF763FEF2E70D20FFF75FFEEEE7BE
:102570000D20FFF75BFE0A20FFF758FEE7E700009B
:1025800030313233343536373839414243444546A9
:102590000000000070B50125F74C00280BD0002189
:1025A00021600169B1F1113F0BD09A21F348FFF787
:1025B0004DFE256070BD9921F048FFF747FE25606C
:1025C00070BD40680A21016070BD70B50125EA4CFC
:1025D000002811D000232360A9B10B88038042603A
:1025E000896881604FF47A6141614FF01131016176
:1025F000FFF7D0FF002070BD6521E048FFF726FE01
:102600002560002070BD6621DC48FFF71FFE2560B5
:10261000002070BD70B50125D74C00280CD00021DA
:1026200021600169B1F1113F0DD0B821D348FFF706
:102630000DFE2560002070BDB721D048FFF706FED3
:102640002560002070BD4068406870BD70B50125F0
:10265000C94C00280CD0002121600169B1F1113F63
:102660000DD0D421C548FFF7F1FD2560002070BDD5
:10267000D321C248FFF7EAFD2560002070BD406805
:102680008068C0F30C0070BD70B50125BA4C0028FD
:102690000BD0002121600169B1F1113F0BD0F52170
:1026A000B648FFF7D3FD256070BDF421B348FFF7AE
:1026B000CDFD256070BD416941F001024168CA60ED
:1026C000416921F001014068C16070BD70B501250C
:1026D000A94C00280CD0002323600169B1F1113FFF
:1026E0000DD040F22111A548FFF7B0FD256070BD67
:1026F0004FF49071A148FFF7A9FD256070BD4168B6
:1027000001220A614068036170BD70B501259A4CD1
:1027100000280DD0002222600269B2F1113F0FD0D3
:102720004FF4A7719548FFF791FD2560002070BD1B
:1027300040F24D119148FFF789FD2560002070BDE2
:10274000A1F12002062905D9A1F10D03122B01D90F
:10275000032A0AD81F2910D840684FF4007202EBF0
:1027600081010844006880B270BD40F24F11834877
:10277000FFF76CFD2560002070BD40684FF480615C
:1027800001EB82010844006880B270BD70B501257C
:10279000794C00280DD0002222600269B2F1113F6D
:1027A0000FD040F281117548FFF750FD25600020E1
:1027B00070BD4FF4C0717148FFF748FD25600020DF
:1027C00070BD022908D840684FF4087202EB8101FD
:1027D0000844006880B270BD4FF4C1716748FFF7CC
:1027E00035FD2560002070BD70B50125624C0028C4
:1027F0000DD0002222600269B2F1113F0FD040F2E9
:10280000BD115E48FFF722FD2560002070BD4FF42A
:10281000DE715A48FFF71AFD2560002070BD0A29B5
:1028200009D9A1F10C02022A05D9743A032A02D966
:10283000083A032A08D840684FF4207202EB81015D
:102840000844006880B270BD4FF4DF714B48FFF759
:10285000FDFC2560002070BD70B50125464C0028A8
:102860000CD0002222600269B2F1113F0DD04FF46A
:10287000F6714248FFF7EAFC256070BD40F2EB11AB
:102880003E48FFF7E3FC256070BD032909D8406886
:1028900000F54070026822F4405242EA01310160C2
:1028A00070BD40F2ED113548FFF7D0FC256070BDDA
:1028B00070B50125304C00280DD000212160016940
:1028C000B1F1113F0FD040F215212C48FFF7BEFCAB
:1028D0002560002070BD4FF405712848FFF7B6FC55
:1028E0002560002070BD4068D0F8000300F440501F
:1028F000000B70BD70B501251F4C00280DD00021C4
:1029000021600169B1F1113F0FD04FF46F711B4885
:10291000FFF79CFC2560002070BD40F2BB311748DA
:10292000FFF794FC2560002070BD4068D0F80403D8
:10293000C0F3033070BD2DE9F05F8146DDF828A0BB
:102940000C46174698460126DFF82CB0B9F1000F67
:1029500016D00020CBF80000D9F81000B0F1113FDC
:1029600017D04FF414710548FFF770FCCBF80060E6
:102970000020BDE8F09F0000F00000200C3C0000AB
:1029800040F24F21FE48FFF761FCCBF800600020C9
:10299000EFE7A4F11005052C07D9082C05D00F2D61
:1029A00003D9A4F1200003280BD8012F12D08FB136
:1029B00040F25721F248FFF749FCCBF800600020B5
:1029C000D7E740F25121EE48FFF740FCCBF800601A
:1029D0000020CEE7B8F1010F0BD0B8F1000F08D0FE
:1029E00040F25921E648FFF731FCCBF800600020A7
:1029F000BFE7BAF1010F0BD0BAF1000F08D040F2D7
:102A00005A21DF48FFF722FCCBF800600020B0E736
:102A10004846FFF76FFF032801D00120A9E7D9F846
:102A2000041001F54071086800F44050012F07D1EF
:102A30000F2D03D9032C01D001209AE740F48070B8
:102A4000BAF1010F07D10F2D03D9032C01D00120BA
:102A50008FE740F48060B8F1010F01D140F40070BD
:102A600004F03F0202430A60002082E770B50125AE
:102A7000C44C00280CD0002222600269B2F1113F40
:102A80000DD040F2C221BE48FFF7E0FB256070BDCB
:102A900040F2C121BA48FFF7D9FB256070BDBA4AA0
:102AA000914209D8406800F54170036812129343BF
:102AB0008A431A43026070BD40F2C321B048FFF759
:102AC000C5FB256070BD70B50125AE4C00280DD04A
:102AD000002121600169B1F1113F0FD040F20331B3
:102AE000A748FFF7B3FB2560002070BD40F202311C
:102AF000A348FFF7ABFB2560002070BD4068D0F80D
:102B0000041340F60F700140884370BD70B5012575
:102B10009C4C00280CD0002222600269B2F1113FC7
:102B20000DD04FF450719648FFF790FB256070BDB3
:102B300040F23F319248FFF789FB256070BDA1F15B
:102B40001002E02A07D931B140F241318C48FFF739
:102B50007DFB256070BD406800F54170026822F081
:102B6000F00201F0F0011143016070BD70B5012564
:102B7000844C00280DD0002121600169B1F1113F82
:102B80000FD040F26D317E48FFF760FB25600020DA
:102B900070BD4FF45B717A48FFF758FB2560002049
:102BA00070BD4068D0F80403C0F30310000170BD8D
:102BB00070B50125734C00280CD0002222600269F8
:102BC000B2F1113F0DD040F293316D48FFF73EFB5B
:102BD000256070BD40F292316948FFF737FB2560F0
:102BE00070BD042908D9082906D04FF465716448DE
:102BF000FFF72CFB256070BD406800F5417002684E
:102C000022F470424FF6FF7303EA01311143016071
:102C100070BD70B501255B4C00280CD000222260ED
:102C20000269B2F1113F0DD040F2DE315448FFF796
:102C30000DFB256070BD40F2DD315148FFF706FB0A
:102C4000256070BD012907D031B140F2DF314C4819
:102C5000FFF7FCFA256070BD426802F5407210680B
:102C6000012903D020F40070106070BD40F40070A2
:102C7000FAE770B50125434C00280CD000222260F1
:102C80000269B2F1113F0DD040F20F413C48FFF70D
:102C9000DDFA256070BD40F20E413948FFF7D6FAE3
:102CA000256070BD052905D9082903D0A1F11002BE
:102CB0000F2A0AD8406800F54070026822F03F02EF
:102CC0000A4342F40061016070BD4FF482612C48F8
:102CD000FFF7BCFA256070BD70B50125294C0028AE
:102CE0000CD0002222600269B2F1113F0DD040F2F7
:102CF00043412348FFF7AAFA256070BD40F24241E4
:102D00001F48FFF7A3FA256070BD40680902C0F8AC
:102D1000081370BD70B501251A4C00280DD0002194
:102D200021600169B1F1113F0FD040F263411448B5
:102D3000FFF78CFA2560002070BD40F26241104818
:102D4000FFF784FA2560002070BD4068D0F80803C2
:102D500080B2000A70BD2DE9F041064614461D46BA
:102D6000084F4FF00108002E17D00020386030695E
:102D7000B0F1113F1AD040F28B41014806E000004B
:102D80000C3C0000F00000200F0F0F00FFF75EFA70
:102D9000C7F800800020BDE8F08140F28A41F74882
:102DA000FFF754FAC7F800800020F4E73046FFF739
:102DB000A1FD08B10120EEE747F6E17071682040FF
:102DC000C1F82003210C41EA0541706889B2C0F8BE
:102DD0002413706805F00F01C0F818130020DAE71B
:102DE00070B50125E64C00280ED000212160016954
:102DF000B1F1113F11D040F2C741E048FFF726FA88
:102E000025600020014670BD40F2C641DB48FFF757
:102E10001DFA25600020014670BD416801F548702B
:102E2000006847F6E172104001F54972126840EA05
:102E30000240D1F8181301F00F010A46114670BD87
:102E40002DE9F041064614461D46CD4F4FF00108CE
:102E5000002E0ED0002038603069B0F1113F11D043
:102E600040F2FA41C548FFF7F1F9C7F800800020A9
:102E700091E740F2F941C148FFF7E8F9C7F800804F
:102E8000002088E73046FFF735FD08B1012082E7D2
:102E900047F6E07071682040C1F82803210C41EA30
:102EA0000541706889B2C0F82C13706805F00F01F5
:102EB000C0F81C1300206EE770B50125B04C002847
:102EC0000ED0002121600169B1F1113F11D040F213
:102ED0003451AA48FFF7BAF925600020014670BDB9
:102EE00040F23351A548FFF7B1F9256000200146B3
:102EF00070BD416801F54A70006847F6E072104005
:102F000001F54B72126840EA0240D1F81C1301F03F
:102F10000F010A46114670BD2DE9F04104460D46E9
:102F20000127974E002C0DD0002030602069B0F1B1
:102F3000113F0FD04FF4AD619048FFF787F937602C
:102F4000002028E740F267518C48FFF77FF937608F
:102F5000002020E72046FFF7CDFC08B101201AE74A
:102F6000606805F40061C0F830136068290CC0F88F
:102F7000341300200FE770B50125814C00280DD0D7
:102F8000002121600169B1F1113F0FD040F29C5145
:102F90007A48FFF75BF92560002070BD40F29B5135
:102FA0007648FFF753F92560002070BD406800F5B2
:102FB0004C71096801F40061D0F8340341EA004023
:102FC00070BD2DE9F04104460D4601276C4E002CE2
:102FD0000DD0002030602069B0F1113F0FD040F2D9
:102FE000CA516648FFF732F937600020D3E640F255
:102FF000C9516248FFF72AF937600020CBE6204626
:10300000FFF778FC08B10120C5E6606805F40061AF
:10301000C0F838136068290CC0F83C130020BAE6E9
:1030200070B50125564C00280DD0002121600169A2
:10303000B1F1113F0FD040F2FE515048FFF706F9B1
:103040002560002070BD40F2FD514C48FFF7FEF8AE
:103050002560002070BD406800F54E71096801F4DC
:103060000061D0F83C0341EA004070BD70B5012515
:10307000434C00280CD0002323600369B3F1113FB7
:103080000DD040F22B613D48FFF7E0F8256070BDA0
:1030900040F22A613948FFF7D9F8256070BD13293D
:1030A00003D9A1F11803032B07D840684FF45073DC
:1030B00003EB81010844026070BD40F22C612F488F
:1030C000FFF7C4F8256070BD70B501252C4C0028B1
:1030D0000DD0002222600269B2F1113F0FD040F200
:1030E00056612648FFF7B2F82560002070BD40F217
:1030F00055612248FFF7AAF82560002070BD13290A
:1031000003D9A1F11802032A08D840684FF450727D
:1031100002EB81010844006880B270BD40F2576143
:103120001648FFF793F82560002070BD70B50125A3
:10313000134C00280CD0002222600269B2F1113F2A
:103140000DD04FF4D0610D48FFF780F8256070BDB9
:1031500040F27F610948FFF779F8256070BDB1F54D
:10316000805F0FD2406800F55370026802F00F02D2
:1031700042EA011189B2016070BD00000C3C000000
:10318000F000002040F281616648FFF75FF825609B
:10319000F2E770B50125644C00280DD000212160B4
:1031A0000169B1F1113F0FD040F2AC615D48FFF70A
:1031B0004DF825600020DFE740F2AB615948FFF78A
:1031C00045F825600020D7E74068D0F84C0380B26E
:1031D0000009D1E770B50125534C00280CD000211F
:1031E00021600169B1F1113F0DD04FF4DA614D4812
:1031F000FFF72CF82560BFE740F2CF614948FFF7A1
:1032000025F82560B8E7406800F55370016889B279
:1032100021F00F0141F003010160ADE770B5012518
:10322000414C00280CD0002121600169B1F1113F0F
:103230000DD040F2F9613B48FFF708F825609BE7A5
:103240004FF4DF613748FFF701F8256094E74068E5
:1032500000F55370016889B221F00F0101608BE71E
:1032600070B50125304C00280CD000212160016987
:10327000B1F1113F0DD040F21A712A48FEF7E6FF76
:10328000256079E740F219712648FEF7DFFF2560D7
:1032900072E7416941F002014268D16041616BE728
:1032A00070B50125204C00280CD000212160016957
:1032B000B1F1113F0DD040F239711A48FEF7C6FF47
:1032C000256059E74FF4E7611648FEF7BFFF256018
:1032D00052E7416921F002014268D16041614BE748
:1032E00070B50125104C00280CD000222260026924
:1032F000B2F1113F0DD04FF4EB610A48FEF7A6FF83
:10330000256039E740F257710648FEF79FFF2560B8
:1033100032E7064B42691A4042EA81014268D160B5
:10332000416129E70C3C0000F00000200300FCFF95
:1033300070B505460126164C002D0CD000202060EB
:103340002869B0F1113F0DD055211248FEF77EFFDC
:103350002660002070BD54210E48FEF777FF2660DE
:10336000002070BD2846FFF715F955220121284697
:10337000FFF77CFE01212846FFF7A6FE552805D061
:1033800001242846FFF706F9204670BD0024F8E71F
:10339000F00000205C3C000010B500240021074A2A
:1033A00002EB01131B88834202D102EB011402E0FD
:1033B000491C0029F4D0204610BD0000F400002074
:1033C00010B500F065F9001D10BD00BFDD04000060
:1033D00010B50446FFF7F4FF0068005DC00602D593
:1033E00004F1200010BD204610BD00000FB41CB534
:1033F000074B06AA7B4469460090059800F0ABF99C
:103400000020694600F0BAF91CBC5DF814FB00000E
:10341000850300002DE9F0410E460446002020629D
:103420002046E168884730B3252805D0D4E901213A
:103430009047206A401CF2E7E16820460027884751
:10344000050018D0A5F14100192802D820354FF405
:1034500000673246294620462760FCF76BFE40B1E4
:10346000012804D0F61D26F007060836D8E7361DD9
:10347000D6E72846DAE7206ABDE8F08170B50C4649
:103480000546012A05D02878800600D5EA69002380
:1034900002E0012305E05B1C934202D2E05C0028BD
:1034A000F9D1A869E618C01AA861286A18442862E8
:1034B0002846AFF3008004E0D5E9012114F8010BA0
:1034C0009047B442F8D32846AFF3008070BD0000A7
:1034D0002DE9F0410646002410687529314616A5ED
:1034E00010D0AFF30080002802DA404213A507E0B5
:1034F00031688A0701D512A502E0490704D511A554
:10350000012401E0AFF3008000210A2206F1240724
:1035100009E0B0FBF2FCB0FBF2F302FB1C00303020
:1035200078541846491C0028F3D123462A463046D1
:10353000BDE8F04100F0B0B8000000002D00000030
:103540002B0000002000000070B504460D46214607
:103550001068AFF300802188090502D50F4A7A442C
:1035600002E00E4A7A440E32002104F1240305E001
:1035700000F00F060009965D5E54491C0028F7D143
:1035800020780023000704D5702D02D009B1022352
:1035900011322046BDE8704000F07EB89203000072
:1035A00040EA0103024630B59B0710D14FF00134C9
:1035B00000E008C208C91D1B9D4315EAC41FF8D0CE
:1035C00013F0FF0102F8011B0DD01B0AF8E711F8F8
:1035D000013B002B02F8013B05D011F8013B002B09
:1035E00002F8013BF3D130BD10B5431C02E010F8E6
:1035F000011B71B18107FAD14FF0013202C88C1A58
:103600008C4314EAC211F9D0C01A0A0603D0C01EB6
:1036100010BDC01A10BD0A0401D0801E10BD0902E1
:10362000FCD0401E10BD10B5203AC0F00B80B1E8B0
:103630001850203AA0E81850B1E81850A0E81850E7
:10364000BFF4F5AF5FEA027C24BFB1E81850A0E8F0
:10365000185044BF18C918C0BDE810405FEA827C0A
:1036600024BF51F8043B40F8043B08BF7047D20721
:1036700028BF31F8023B48BF11F8012B28BF20F8C2
:10368000023B48BF00F8012B7047704770477047F6
:1036900000487047700500202DE9F0470D46994617
:1036A0009246044600F124080168880604D5E069C2
:1036B00021F01001216000E00120A84201DD471B3C
:1036C00000E00027A1697A1902EB0900081AA0613D
:1036D0002078C00602D42046AFF30080002608E020
:1036E000D4E901211AF806009047206A401C761C94
:1036F00020624E45F4DB2078C0060AD52046AFF3A1
:10370000008006E0D4E9012130209047206A401C67
:103710002062381EA7F10107F4DC07E0D4E901219B
:1037200018F805009047206A401C2062281EA5F169
:103730000105F3DC2046AFF300802078000602D5B7
:103740000220BDE8F0870120FBE7000001694A1C68
:1037500002610878704700B58FB0CDE901310021D2
:10376000059105497944CDE9031011466846FFF7F4
:1037700051FE0FB000BD0000E5FFFFFF0A6802F830
:10378000010B0A60704710B5436913B1AFF30080B5
:1037900001E0FFF773FE012010BD127800F1240153
:1037A0000A7000224A700122EDE711684FF0FF32E3
:1037B000E9E7000000487047500500204FF0013C49
:1037C00050F8042B51F8043B9A4221D1A2EB0C0390
:1037D000934313EACC1317D150F8042B51F8043B50
:1037E0009A4215D1A2EB0C03934313EACC130BD1ED
:1037F00050F8042B51F8043B9A4209D1A2EB0C0378
:10380000934313EACC13DBD04FF00000704700BFA6
:10381000D01A01BAB1FA81F101F0180122FA01F0CF
:10382000CB40C1F12001DBB2C0B2C01A2CFA01F3C7
:10383000D11A914311EAC311E6D170477546FFF7DB
:10384000B9FFAE4605006946534620F0070085469D
:1038500018B020B5FCF7B2FCBDE820404FF00006E0
:103860004FF000074FF000084FF0000B21F0070168
:10387000AC46ACE8C009ACE8C009ACE8C009ACE8AB
:10388000C0098D46704710B50446AFF3008020464E
:10389000BDE81040FCF772BC01491820ABBEFEE742
:1038A000260002007047000010B500290AD00878F1
:1038B000002807D005487844FFF780FF002801D092
:1038C000002010BD0248784410BD00001E04000016
:1038D0001604000067452301EFCDAB89EFBEADDED6
:1038E000EDDAEBFEA53CF0A521436587A90BDCFED4
:1038F0000804020130313233343536373839414229
:103900004344454640305800303132333435363741
:103910003839616263646566403078002E2E5C73CE
:10392000646B5F776F726B73706163655C737461F6
:103930006E64616C6F6E655F6273705F305C436F65
:10394000727465785F4D335F305C6C69627372636B
:103950005C7370695F76345F365C7372635C787336
:1039600070692E63000000002E2E5C73646B5F771D
:103970006F726B73706163655C7374616E64616CAC
:103980006F6E655F6273705F305C436F72746578F1
:103990005F4D335F305C6C69627372635C73706936
:1039A0005F76345F365C7372635C787370695F73E3
:1039B000696E69742E6300002E2E5C73646B5F77F2
:1039C0006F726B73706163655C7374616E64616C5C
:1039D0006F6E655F6273705F305C436F72746578A1
:1039E0005F4D335F305C6C69627372635C756172EA
:1039F000746C6974655F76335F345C7372635C7892
:103A0000756172746C6974652E6300002E2E5C7390
:103A1000646B5F776F726B73706163655C73746105
:103A20006E64616C6F6E655F6273705F305C436F74
:103A3000727465785F4D335F305C6C69627372637A
:103A40005C756172746C6974655F76335F345C7346
:103A500072635C78756172746C6974655F696E74A9
:103A6000722E63002E2E5C73646B5F776F726B73C4
:103A7000706163655C7374616E64616C6F6E655FC9
:103A80006273705F305C436F727465785F4D335F53
:103A9000305C6C69627372635C756172746C6974BA
:103AA000655F76335F345C7372635C7875617274E2
:103AB0006C6974655F73696E69742E630000000041
:103AC0002E2E5C73646B5F776F726B7370616365CE
:103AD0005C7374616E64616C6F6E655F6273705F5E
:103AE000305C436F727465785F4D335F305C6C6936
:103AF000627372635C756172746C6974655F76334E
:103B00005F345C7372635C78756172746C69746540
:103B10005F73746174732E63000000002E2E5C735B
:103B2000646B5F776F726B73706163655C737461F4
:103B30006E64616C6F6E655F6273705F305C436F63
:103B4000727465785F4D335F305C6C696273726369
:103B50005C6770696F5F76345F365C7372635C7844
:103B60006770696F2E6300002E2E5C73646B5F7745
:103B70006F726B73706163655C7374616E64616CAA
:103B80006F6E655F6273705F305C436F72746578EF
:103B90005F4D335F305C6C69627372635C67706940
:103BA0006F5F76345F365C7372635C786770696FE1
:103BB0005F696E74722E63002E2E5C73646B5F7788
:103BC0006F726B73706163655C7374616E64616C5A
:103BD0006F6E655F6273705F305C436F727465789F
:103BE0005F4D335F305C6C69627372635C677069F0
:103BF0006F5F76345F365C7372635C786770696F91
:103C00005F73696E69742E63000000002E2E5C7372
:103C1000646B5F776F726B73706163655C73746103
:103C20006E64616C6F6E655F6273705F305C436F72
:103C3000727465785F4D335F305C6C696273726378
:103C40005C7379736D6F6E5F76375F365C7372632A
:103C50005C787379736D6F6E2E6300002E2E5C732B
:103C6000646B5F776F726B73706163655C737461B3
:103C70006E64616C6F6E655F6273705F305C436F22
:103C8000727465785F4D335F305C6C696273726328
:103C90005C7379736D6F6E5F76375F365C737263DA
:103CA0005C787379736D6F6E5F73656C6674657342
:103CB000742E6300E43D00000000002004010000B9
:103CC000FC000000E83E000004010020AC140000ED
:103CD000180100001001000043000000F8FFFFFF82
:103CE000004040404040404040404141414141400F
:103CF00040404040404040404040404040404040C4
:103D00004005020202020202020202020202020252
:103D10000220202020202020202020020202020257
:103D200002029090909090901010101010101010AF
:103D300010101010101010101010101002020202BB
:103D400002028888888888880808080808080808FF
:103D500008080808080808080808080802020202FB
:103D60004000000000000000000000000000000013
:103D70000000000000000000000000000000000043
:103D80000000000000000000000000000000000033
:103D90000000000000000000000000000000000023
:103DA0000000000000000000000000000000000013
:103DB0000000000000000000000000000000000003
:103DC00000000000000000000000000000000000F3
:103DD00000000000000000000000000000000000E3
:103DE0000000000040787D0101010000000000009B
:103DF00000000000000000000000000000000000C3
:103E00000000134001000000000000000108020053
:103E1000000000000001000001000000000002405E
:103E20000100000000000000010802000000000086
:103E3000000000000200000000000340010000003C
:103E40000000000001080000000000000000000069
:103E5000030000000000004001000000000000001E
:103E60000108020100000000010000000000000045
:103E70000000104000C20100000008000100000026
:103E80000000604000C201000000080000000000C7
:103E900000001140010000000100000001000000CE
:103EA00000001240010000000100000002000000BC
:103EB00000000140000000000000000003000000BE
:103EC00000000440010000000100000001000000AB
:103ED0000000000000000000000000000000A244FC
:083EE0000100000000000000D9
:04000005000001A155
:00000001FF
